:1000000009C1000036C1000034C1000032C1000047
:1000100030C100002EC100002CC100002AC1000028
:1000200028C1000026C1000024C1000022C1000038
:1000300020C100001EC100001CC100001AC1000048
:1000400018C1000016C1000014C1000012C1000058
:1000500010C100000EC100000CC100006FC2000002
:1000600008C10000A1C50000D5C5000002C1000004
:1000700000C10000FEC00000FCC00000FAC000008B
:10008000F8C00000F6C00000F4C00000F2C000009C
:10009000F0C00000EEC00000ECC00000EAC00000AC
:1000A000E8C00000E6C00000E4C00000E2C00000BC
:1000B000E0C00000DEC00000DCC00000DAC00000CC
:1000C000D8C00000D6C00000D4C00000D2C00000DC
:1000D000D0C00000CEC00000CCC00000CAC00000EC
:1000E000C8C00000BC03BF03AE03B203B803F603ED
:1000F000C303C703CD03D103D503DB03DF03E3034E
:10010000F603E903ED03F10300000A0B02090C0DED
:100110000E080703040100000000000000000000BA
:1001200000000000000000000000000000000000CF
:10013000000000001211100000000000000000008C
:1001400000000000000000000000000000000102AC
:1001500010202008081020401020408002010201D9
:100160000804020101020408102040808040201091
:1001700008040201800402018040201008040201EA
:100180000804020101020408102040800102040852
:10019000102040800505050507050808080802022B
:1001A00002020A0A08080404040401010101010111
:1001B00001010303030303030303040707070C0CF4
:1001C0000C0C0C0C0C0C02020202060606060606BB
:1001D00006060B0B0B0B0B0B0B0B00002200250074
:1001E00028002B002E003100340002010000050120
:1001F00008010B0100002100240027002A002D0027
:100200003000330001010000040107010A018A01E6
:100210003C06940111241FBECFEFD1E2DEBFCDBF5B
:1002200000E00CBF12E0A0E0B2E0E4E7F6E100E09D
:100230000BBF02C007900D92AA3BB107D9F723E08C
:10024000AAEBB2E001C01D92A137B207E1F712E0BC
:10025000C2E1D2E000E005C022970109FE010BBF18
:1002600058D7CE30D10780E00807B1F749D50C94B4
:10027000290BC6CE26E040E052EC61E070E080ED54
:1002800092E032D461E089E0B2D261E08AE0AFD29C
:1002900061E088E0ACD261E08DE0A9D261E086E364
:1002A000A6D261E087E3A3D261E086E2A0D261E05A
:1002B0008CE39DD261E08DE39AD261E088E397D22E
:1002C00061E08EE294D261E080E391D261E08EE35E
:1002D0008ED261E08AE18BD261E08CE188D261E06C
:1002E00088E185D261E084E282D261E082E27FD25D
:1002F00061E08EE17CD260E086E2B2D260E088E329
:10030000AFD260E08EE3ACD260E088E1A9D260E0D9
:100310008EE1A6C26BEA72E081EC92E0D1D56BEA85
:1003200072E08BEB92E0CCC58BEB92E062D581EC76
:1003300092E05FC58F929F92AF92BF92CF92DF9271
:10034000EF92FF92CF93DF93CDB7DEB72C970FB626
:10035000F894DEBF0FBECDBF80ED92E0B6D2181686
:1003600019060CF0DAC080ED92E0C8D2682F8A300E
:1003700089F0803221F481E08093BA02CEC080916E
:10038000BA02882319F08BEB92E002C081EC92E074
:1003900033D6C3C066E072E081EC92E069D6882370
:1003A00031F061E08DE05CD26DE072E0A7C065E104
:1003B00072E081EC92E05CD6882331F060E08DE061
:1003C0004FD26DE172E09AC066E272E081EC92E099
:1003D0004FD68823B1F1C12CD12C760146015701AB
:1003E0008BEB92E063D62FEFC21AD20AE20AF20A2E
:1003F00086169706A806B9068CF461E08CE330D225
:1004000062E070E080E090E006D160E08CE328D20A
:1004100062E070E080E090E0FED0E0CF6BEB72E055
:10042000CE01079677D56BE272E0CE01019648D5F2
:10043000BE01695F7F4FCE010196F1D564E372E0A2
:100440003BC06BE372E081EC92E012D68823B9F0F6
:1004500061E089E005D24AE069E070E0CE010796EC
:1004600077D562E472E0CE0101962AD5BE01695FBC
:100470007F4FCE010196D3D56EE472E01DC069E5D1
:1004800072E081EC92E0F4D5882311F160E089E01C
:10049000E7D14AE069E070E0CE01079659D562E401
:1004A00072E0CE0101960CD5BE01695F7F4FCE018F
:1004B0000196B5D561E672E0C3D5BC0180ED92E04E
:1004C00078D4CE01019695D4CE01079692D419C066
:1004D0006DE672E081EC92E0CBD5882369F066E0AE
:1004E00072E080ED92E075D465E172E080ED92E01B
:1004F00070D46DE672E002C062E772E080ED92E0D7
:1005000068D46BEA72E081EC92E00CD56BEA72E0A1
:100510008BEB92E007D51092BA022C960FB6F894A6
:10052000DEBF0FBECDBFDF91CF91FF90EF90DF9088
:10053000CF90BF90AF909F908F9008951F920F9291
:100540000FB60F9211242F933F938F939F93AF93E6
:10055000BF938091C8029091C902A091CA02B09144
:10056000CB023091C70223E0230F2D3720F40196F0
:10057000A11DB11D05C026E8230F0296A11DB11DC6
:100580002093C7028093C8029093C902A093CA0225
:10059000B093CB028091CC029091CD02A091CE027B
:1005A000B091CF020196A11DB11D8093CC02909312
:1005B000CD02A093CE02B093CF02BF91AF919F9195
:1005C0008F913F912F910F900FBE0F901F90189514
:1005D0003FB7F8948091CC029091CD02A091CE02C9
:1005E000B091CF0226B5A89B05C02F3F19F0019608
:1005F000A11DB11D3FBF6627782F892F9A2F620F4B
:10060000711D811D911D42E0660F771F881F991F84
:100610004A95D1F708958F929F92AF92BF92CF9251
:10062000DF92EF92FF926B017C01D2DF4B015C0104
:10063000C114D104E104F104E1F042D5C9DF681925
:1006400079098A099B09683E73408105910580F309
:1006500021E0C21AD108E108F10888EE880E83E093
:10066000981EA11CB11CC114D104E104F10431F79E
:10067000DFCFFF90EF90DF90CF90BF90AF909F9033
:100680008F900895789484B5826084BD84B581602C
:1006900084BD85B5826085BD85B5816085BDEEE68A
:1006A000F0E0808181608083E1E8F0E01082808169
:1006B00082608083808181608083E0E8F0E08081D7
:1006C00081608083E1EBF0E0808184608083E0EBF7
:1006D000F0E0808181608083E1E9F0E080818260E8
:1006E0008083808181608083E0E9F0E080818160A7
:1006F0008083E1EAF0E08081826080838081816094
:100700008083E0EAF0E0808181608083E1E2F1E0D3
:10071000808182608083808181608083E0E2F1E07B
:10072000808181608083EAE7F0E08081846080835B
:100730008081826080838081816080838081806805
:1007400080831092C100089590E0FC013197E2315E
:10075000F10508F04BC0EE58FF4FD5C480918000E2
:100760008F7703C0809180008F7D809380000895F3
:1007700080918000877FF9CF84B58F7702C084B5E0
:100780008F7D84BD08958091B0008F7703C08091E4
:10079000B0008F7D8093B0000895809190008F7796
:1007A00007C0809190008F7D03C080919000877F6B
:1007B0008093900008958091A0008F7707C080916A
:1007C000A0008F7D03C08091A000877F8093A00050
:1007D0000895809120018F7707C0809120018F7D3F
:1007E00003C080912001877F809320010895CF93DB
:1007F000DF9390E0FC01E25BFE4F2491FC01EC569C
:10080000FE4F8491882349F190E0880F991FFC01E5
:10081000EC50FE4FA591B49186529E4FFC01C591BC
:10082000D4919FB7611108C0F8948C9120958223D0
:100830008C93888182230AC0623051F4F8948C91A1
:10084000322F309583238C938881822B888304C038
:10085000F8948C91822B8C939FBFDF91CF91089558
:100860000F931F93CF93DF931F92CDB7DEB7282F3F
:1008700030E0F901E85FFE4F8491F901E25BFE4F41
:100880001491F901EC56FE4F04910023C1F0882326
:1008900019F0698359DF6981E02FF0E0EE0FFF1F47
:1008A000E652FE4FA591B4919FB7F8948C916111D7
:1008B00003C01095812301C0812B8C939FBF0F90A3
:1008C000DF91CF911F910F910895FC01818D228DB1
:1008D00090E0805C9F4F821B91098F739927089548
:1008E000FC01918D828D981731F0828DE80FF11DFA
:1008F000858D90E008958FEF9FEF0895FC01918D15
:10090000828D981761F0828DDF01A80FB11D5D9671
:100910008C91928D9F5F9F73928F90E008958FEFDF
:100920009FEF089583E396E0892B39F080E090E013
:10093000892B19F098D1811125C080E090E0892B96
:1009400041F080E090E0892B21F00E9400008111AD
:100950001CC080E090E0892B41F080E090E0892B82
:1009600021F00E940000811113C080E090E0892BEB
:10097000A1F080E090E0892B81F00E9400008111BD
:100980000AC008950E940000D8CF0E940000E1CF65
:100990000E940000EACF0C9400000895FC01848DB1
:1009A000DF01A80FB11DA35ABF4F2C91848D90E099
:1009B00001968F739927848FA689B7892C93A08974
:1009C000B1898C9180648C93938D848D981306C02B
:1009D0000288F389E02D80818F7D80830895CF93F5
:1009E000DF93EC01888D8823C1F0EA89FB8980813F
:1009F00085FD05C0A889B9898C9186FD0EC00FB60A
:100A000007FCF5CF808185FFF2CFA889B9898C9149
:100A100085FFEDCFCE01C2DFE8CFDF91CF91089502
:100A2000CF92DF92FF920F931F93CF93DF931F928A
:100A3000CDB7DEB76C0181E0D60158968C935897FC
:100A40005B969C915B975C968C915C97981307C022
:100A50005096ED91FC915197808185FD2DC0F60156
:100A6000038D10E00F5F1F4F0F731127F02EF6015B
:100A7000848DF81210C00FB607FCF9CFD60150963E
:100A8000ED91FC915197808185FFF1CFC60169837B
:100A900085DF6981ECCF838DE80FF11DE35AFF4FAD
:100AA0006083D6015B960C935B975296ED91FC9117
:100AB0005397808180620CC0D6015696ED91FC91CF
:100AC000579760835096ED91FC9151978081806497
:100AD000808381E090E00F90DF91CF911F910F9183
:100AE000FF90DF90CF900895BF92CF92DF92EF9268
:100AF000FF92CF93DF93EC016A017B01B22EE8896C
:100B0000F98982E08083411581EE580761057105FE
:100B100099F060E079E08DE390E0A7019601D1D2F1
:100B20002150310941095109569547953795279527
:100B3000211580E1380790F0E889F989108260E892
:100B400074E88EE190E0A7019601BBD221503109F3
:100B5000410951095695479537952795EC85FD85AF
:100B60003083EE85FF852083188EEC89FD89B08265
:100B7000EA89FB89808180618083EA89FB898081A1
:100B800088608083EA89FB89808180688083EA8924
:100B9000FB8980818F7D8083DF91CF91FF90EF90E3
:100BA000DF90CF90BF9008951F920F920FB60F92D3
:100BB00011240BB60F922F938F939F93EF93FF9374
:100BC000E091E002F091E1028081E091E602F09193
:100BD000E70282FD12C090818091E9028F5F8F73DE
:100BE0002091EA02821751F0E091E902F0E0E0532F
:100BF000FD4F958F8093E90201C08081FF91EF91B5
:100C00009F918F912F910F900BBE0F900FBE0F9061
:100C10001F9018951F920F920FB60F9211240BB6CA
:100C20000F922F933F934F935F936F937F938F9385
:100C30009F93AF93BF93EF93FF9380ED92E0AEDE6F
:100C4000FF91EF91BF91AF919F918F917F916F91A4
:100C50005F914F913F912F910F900BBE0F900FBE60
:100C60000F901F90189580ED92E02FDE21E0892BE8
:100C700009F420E0822F08951092D3021092D2023C
:100C800088EE93E0A0E0B0E08093D4029093D50288
:100C9000A093D602B093D7028DE992E09093D1024F
:100CA0008093D00285EC90E09093DD028093DC028B
:100CB00084EC90E09093DF028093DE0280EC90E081
:100CC0009093E1028093E00281EC90E09093E30244
:100CD0008093E20282EC90E09093E5028093E4023C
:100CE00086EC90E09093E7028093E6021092E9028E
:100CF0001092EA021092EB021092EC02089508950D
:100D0000C1DCFDDFB7DAC2E9D4E014DB2097E9F3F8
:100D100009DEFBCFCF92DF92EF92FF920F931F93EA
:100D2000CF93DF937C016A01EB0100E010E00C152A
:100D30001D0571F06991D701ED91FC910190F08151
:100D4000E02DC7011995892B19F00F5F1F4FEFCFC9
:100D5000C801DF91CF911F910F91FF90EF90DF902D
:100D6000CF9008956115710581F0DB010D90002091
:100D7000E9F7AD0141505109461B570BDC01ED91DC
:100D8000FC910280F381E02D199480E090E00895B9
:100D9000DC01ED91FC91DB0114964D915C9115976E
:100DA0006D917C910280F381E02D199469EA72E0E3
:100DB000D9CF0F931F93CF93DF93EC01E9DF8C0121
:100DC000CE01F4DF800F911FDF91CF911F910F9122
:100DD00008950F931F93CF93DF93EC01C3DF8C0132
:100DE000CE01E4DF800F911FDF91CF911F910F9112
:100DF0000895FC018081918128C2CF93DF93EC019B
:100E000088819981009709F020D2198218821D8269
:100E10001C821B821A82DF91CF9108950F931F933A
:100E2000CF93DF93EC018B016F5F7F4F88819981B6
:100E30009BD2009731F0998388831B830A8381E0DA
:100E400001C080E0DF91CF911F910F910895CF9362
:100E5000DF93EC0188819981892B29F08A819B811C
:100E60008617970758F4CE01D9DF882341F08C818B
:100E70009D81892B19F4E881F981108281E0DF914D
:100E8000CF910895EF92FF920F931F93CF93DF932B
:100E9000EC017B018A01BA01DADF811103C0CE01C6
:100EA000ACDF06C01D830C83B7018881998178D39C
:100EB000CE01DF91CF911F910F91FF90EF90089598
:100EC000FC01118210821382128215821482611534
:100ED000710551F0FB0101900020E9F7AF0141508D
:100EE0005109461B570BCECF0895CF93DF93EC01EA
:100EF000FB018617970751F06081718161157105BB
:100F000021F044815581BEDF01C077DFCE01DF9142
:100F1000CF910895FC0111821082138212821582F2
:100F20001482E3CFCF93DF93EC016115710559F083
:100F3000FB0101900020E9F7AF0141505109461B28
:100F4000570BA0DF01C059DFCE01DF91CF9108958B
:100F50000F931F93CF93DF93CDB7DEB762970FB692
:100F6000F894DEBF0FBECDBF8C01CB01F80111821A
:100F70001082138212821582148250E0BE016F5FCC
:100F80007F4F15D3BE016F5F7F4FC801CBDF6296E5
:100F90000FB6F894DEBF0FBECDBFDF91CF911F918A
:100FA0000F910895EF92FF920F931F93CF93DF93CA
:100FB000EC017B010C811D816115710511F480E04C
:100FC00014C04115510581F0040F151FB8013FDF12
:100FD0008823A9F3288139818C819D81B701820FF3
:100FE000931FDED21D830C8381E0DF91CF911F918F
:100FF0000F91FF90EF900895CF93DF931F921F9270
:10100000CDB7DEB769831A8241E050E0BE016F5F61
:101010007F4FC8DF0F900F90DF91CF910895CF934E
:10102000DF93EC01FB014481558160817181BADF5E
:10103000811102C0CE01E1DECE01DF91CF91089592
:10104000CF93DF93EC016115710561F0FB01019015
:101050000020E9F7AF0141505109461B570BA2DFB1
:10106000811102C0CE01C9DECE01DF91CF9108957A
:10107000FC0124813581232B31F421E061157105B8
:1010800099F0FB0108C0FC01808191816115710517
:1010900031F421E0FC018081882331F004C077D253
:1010A00021E0892B09F020E0822F0895FC01808146
:1010B0009181009709F03CC260E070E0CB01089597
:1010C0000895A1E21A2EAA1BBB1BFD010DC0AA1F89
:1010D000BB1FEE1FFF1FA217B307E407F50720F0A1
:1010E000A21BB30BE40BF50B661F771F881F991F1C
:1010F0001A9469F760957095809590959B01AC0165
:10110000BD01CF010895EE0FFF1F0590F491E02D72
:1011100019940790F691E02D1994CF93DF938230C4
:10112000910510F482E090E0E0916F03F09170037C
:1011300020E030E0A0E0B0E0309739F1408151810B
:1011400048175907B8F04817590771F482819381FD
:10115000109729F013969C938E9312972CC090931E
:10116000700380936F0327C02115310531F04217BA
:10117000530718F0A901DB0101C0EF019A01BD017D
:10118000DF010280F381E02DD7CF21153105F9F081
:10119000281B390B2430310580F48A819B8161152D
:1011A000710521F0FB019383828304C09093700347
:1011B00080936F03FE01329644C0FE01E20FF31FDD
:1011C0008193919322503109398328833AC0209129
:1011D0006D0330916E03232B41F420910202309174
:1011E000030230936E0320936D032091000230912F
:1011F00001022115310541F42DB73EB7409104029B
:1012000050910502241B350BE0916D03F0916E03A4
:10121000E217F307A0F42E1B3F0B2817390778F0CD
:10122000AC014E5F5F4F2417350748F04E0F5F1F2C
:1012300050936E0340936D038193919302C0E0E05D
:10124000F0E0CF01DF91CF910895CF93DF93009726
:1012500009F487C0FC01329713821282C0916F0398
:10126000D0917003209781F420813181280F391F9C
:1012700080916D0390916E038217930779F5F09337
:101280006E03E0936D036DC0DE0120E030E0AE1729
:10129000BF0750F412964D915C9113979D01411533
:1012A000510509F1DA01F3CFB383A2834081518163
:1012B000840F951F8A179B0771F48D919C9111974C
:1012C000840F951F02969183808312968D919C9135
:1012D0001397938382832115310529F4F0937003CA
:1012E000E0936F033EC0D9011396FC93EE931297DF
:1012F0004D915D91A40FB51FEA17FB0779F480812A
:101300009181840F951F0296D90111969C938E931B
:101310008281938113969C938E931297E0E0F0E084
:101320008A819B81009719F0FE01EC01F9CFCE0173
:10133000029628813981820F931F20916D0330918D
:101340006E032817390769F4309729F41092700357
:1013500010926F0302C013821282D0936E03C09367
:101360006D03DF91CF9108956F927F928F929F923C
:10137000AF92BF92CF92DF92EF92FF920F931F93A3
:10138000CF93DF93EC01CB01209779F4DF91CF91DC
:101390001F910F91FF90EF90DF90CF90BF90AF9093
:1013A0009F908F907F906F90B8CEFE01E60FF71F51
:1013B0009E0122503109E217F30708F4A8C0D901B1
:1013C0000D911C91119706171707B0F00530110504
:1013D00008F49BC0A801445051094617570708F468
:1013E00094C002501109061B170B019311936D93C2
:1013F0007C93CF012ADF89C05B01A01AB10A4E019C
:10140000800E911EA0916F03B0917003612C712C1E
:1014100060E070E0109709F449C0A815B905C9F556
:10142000ED90FC901197670142E0C40ED11CCA14E4
:10143000DB0478F147018A189B08640142E0C40E7E
:10144000D11C1296BC9012971396AC91B5E0CB16B6
:10145000D10440F0B282A38391828082D9018D931E
:101460009C9309C00E5F1F4F0E0D1F1DF9011183C4
:101470000083EB2DFA2F6115710531F0DB01139616
:10148000FC93EE93129741C0F0937003E0936F03C7
:101490003CC06D917C9111976616770608F43B016C
:1014A000BD0112960D90BC91A02DB4CF60916D033B
:1014B00070916E0368157905E9F468167906D0F421
:1014C00040910002509101024115510541F44DB780
:1014D0005EB76091040270910502461B570BE4173A
:1014E000F507A8F4F0936E03E0936D03F90191837F
:1014F00080830BC012DE7C01009749F0A801BE0179
:101500003DD0CE01A2DEC70104C0CE0102C080E002
:1015100090E0DF91CF911F910F91FF90EF90DF90BE
:10152000CF90BF90AF909F908F907F906F900895D5
:101530001F93FC0199278827BC01E8941191103270
:10154000E9F3193010F01E30C8F31B3249F01D3298
:1015500041F4689405C03FD0610F711D811D911D3C
:10156000119110531A30B8F33EF490958095709510
:1015700061957F4F8F4F9F4F1F910895FB01DC01B5
:1015800002C001900D9241505040D8F70895FB01E0
:10159000DC018D91019080190110D9F3990B089508
:1015A000FB01DC0101900D920020E1F70895453226
:1015B000510518F4423008F004C0FB011082CB0141
:1015C0000895BB274A3031F4992322F4BDE2909567
:1015D00081959F4F16C0592F482F372F262F660F02
:1015E000771F881F991F660F771F881F991F620F2B
:1015F000731F841F951F660F771F881F991F0895FB
:10160000BB27FB015527AA27880F991FAA1FA417DC
:1016100010F0A41B83955051B9F7A05DAA3308F0D0
:10162000A95DA193009779F7B111B1931192CB0104
:1016300000C0DC01FC01672F71917723E1F732973D
:1016400004C07C916D9370836291AE17BF07C8F39D
:10165000089512E0C2E1D2E000E005C0229701093E
:10166000FE010BBF56DDC431D10780E00807B1F79A
:04167000F894FFCF1C
:101674000000710380006C65645F6F6E004C6564EC
:10168400206F6E21006C65645F6F6666004C656454
:10169400206F666621007374657000537465707002
:1016A400656420002073746570730066616E5F6FFB
:1016B4006E0046616E206F6E2070696E200020748B
:1016C40075726E6564206F6E0066616E5F6F66662C
:1016D40000207475726E6564206F66660068656CC0
:1016E400700054797065202768656C702720746FCA
:1016F400206C69737420617661696C61626C652029
:10170400636F6D6D616E6473000000000010058AE4
:101714000665047E047004EF040D0A006E616E0019
:0A172400696E66006F7666002E0005
:00000001FF
